:100000000C942A000C9447000C9447000C94470071
:100010000C9447000C9447000C9447000C94470044
:100020000C9447000C9447000C9447000C94F30088
:100030000C9447000C9447000C9447000C94470024
:100040000C9447000C9447000C9447000C94470014
:100050000C94470011241FBECFE5D4E0DEBFCDBF16
:1000600010E0A0E6B0E0E4ECF7E002C005900D92ED
:10007000A83BB107D9F710E0A8EBB0E001C01D9292
:10008000AB3EB107E1F70E94F1010C94E0030C9440
:1000900000001ABA1BBA089587B38F6087BB88B374
:1000A000807F88BB81B3806381BB82B3806382BB66
:1000B0000895A39AAB98089516B880E287B980E8AE
:1000C00088B986E886B908958770806287B9369ABC
:1000D000349BFECF85B1349A08951AB81BB886E8D0
:1000E00080BD8FE289B910BC88E98AB9089598B3B8
:1000F000907F8F70892B88BB089588B3807F86603E
:1001000088BB089588B3807F896088BB089588B3D1
:10011000807F856088BB089588B3807F8A6088BBB4
:10012000089588B3807F88BB089583B3886085BBBA
:10013000089583B3877F85BB08951092BB0010920A
:10014000BA0088EE93E028EB30E0F9013197F1F73F
:100150000197D9F783E38CB980E098E40197F1F730
:1001600084E38CB981E090E061E070E00E942003BC
:1001700080E690E00E94130381E090E061E070E08F
:100180000E94200380E790E00E941303089581E01D
:1001900090E09093BB008093BA0088EE93E028EB48
:1001A00030E0F9013197F1F70197D9F781E38CB984
:1001B00080E098E40197F1F784E38CB981E090E066
:1001C00061E070E00E94200380E690E00E9413034B
:1001D00081E090E061E070E00E94200381E890E01F
:1001E0000E94130308951F920F920FB60F921124CD
:1001F0002F933F934F935F936F937F938F939F932F
:10020000AF93BF93EF93FF934CB18091B80090915F
:10021000B9000097B1F481E090E09093B900809329
:10022000B8004093B600453309F0A3C09093BD00D9
:100230008093BC0061E070E00E94200387E890E0BA
:1002400078C0019709F095C02091B600253339F0A8
:100250008091BC009091BD00019709F06DC081E0D4
:1002600090E09093BD008093BC002091BE0030913F
:10027000BF008091C0009091C100F901EE0FFF1FF7
:10028000EE0FFF1FE80FF91FE453FF4F4083019665
:100290009093C1008093C0000497C1F41092C100F4
:1002A0001092C000C90101969093BF008093BE00D8
:1002B000049761F41092BF001092BE001092BD002E
:1002C0001092BC001092B9001092B80081E090E04A
:1002D00061E070E00E94200380E990E00E94130337
:1002E00081E090E061E070E00E9420038091CC000A
:1002F0008093C2008091CD008093C3008091D00094
:100300008093C4008091D1008093C5008091B80093
:10031000805D8093C6008091BC00805D8093C700A3
:100320008091BA00805D8093C8001092C90082EC71
:1003300090E00E9413031DC02233B9F48091BA00EB
:100340009091BB00892B89F48FEF8093B6001092B7
:10035000B9001092B800E42FF0E0E955FF4F80811A
:10036000813339F40E94C70004C01092B900109282
:10037000B800FF91EF91BF91AF919F918F917F91C5
:100380006F915F914F913F912F910F900FBE0F9002
:100390001F90189587B38F6087BB88B3807F88BB19
:1003A00081B3806381BB82B3806382BBA39AAB9825
:1003B0000E9480021ABA1BBA0895F8940E94CA01DA
:1003C0001AB81BB896E890BD8FE289B910BC88E9CD
:1003D0008AB916B880E287B980E888B996B9789466
:1003E0000895BF92CF92DF92EF92FF920F931F93E7
:1003F000CF93DF930E94DD010E9487020E94DA0200
:10040000C0E0D0E020E030E008EB10E0F2E3BF2EE7
:10041000E12CE8E4FE2E74E3C72E61E2D62E809133
:10042000BA009091BB00019731F42115310519F400
:1004300021E030E037C02130310599F42196CF31E9
:10044000D10584F181E090E061E070E00E9420033A
:100450008BE990E00E941303C0E0D0E022E030E09E
:1004600021C022303105F1F42196CF31D105D4F0ED
:1004700081E090E061E070E00E94200386EA90E075
:100480000E94130388EE93E0F8013197F1F701978A
:10049000D9F7BCB8C7010197F1F7CCB8C0E0D0E0FC
:1004A00023E030E0D7B8369A349BFECF85B1349A3A
:1004B0008093DC00833350F48091BA009091BB00AC
:1004C000019721F40E949D0020E030E088EE93E047
:1004D000F8013197F1F70197D9F7A1CF4770406242
:1004E00047B9369A349BFECF45B1349A4093DC002D
:1004F00090E070E050E023E030E00E943C0308957B
:1005000084B3876F84BB85B3807885BB089583E30C
:1005100097E0FC013197F1F7A898A99840E345BB13
:10052000AA9A20E034E2F9013197F1F7AA98FC0188
:100530003197F1F7A898A99845BBAA9AF901319784
:10054000F1F7AA98FC013197F1F7A898A99845BB53
:10055000AA9AF9013197F1F7AA980197F1F7A898AB
:10056000A99880E285BBAA9AC9010197F1F7AA98D8
:10057000089595B39F7095BB25B3982F907F922BCC
:1005800095BBA898A998AA9A20E034E2F90131977E
:10059000F1F7AA9895B39F7095BB95B38295807F2C
:1005A000982B95BBA898A998AA9AC9010197F1F729
:1005B000AA98089583E397E00197F1F788E20E94F3
:1005C000B90281E00E94B90286E00E94B9028EE081
:1005D0000E94B90280E80E94B902089595B39F7005
:1005E00095BB25B3982F907F922B95BBA89AA9987D
:1005F000AA9A20E034E2F9013197F1F7AA9895B36D
:100600009F7095BB95B38295807F982B95BBA89AD8
:10061000A998AA9AC9010197F1F7AA98089580E8C4
:100620000E94B9020895CF93DF93EC0103C00E94AA
:10063000EE02219688818823D1F7DF91CF9108952A
:10064000823069F0833018F48130A9F405C083301A
:1006500049F0843081F40BC0862F815805C0862F65
:10066000815402C0862F8D560E94B9020895862FAC
:100670008D520E94B90208950F931F93CF93DF9379
:100680008A01E901882311F0662319F40E940F03FF
:1006900002C00E942003C530D10571F4C80160E199
:1006A00077E20E94CC03CB01C0969093E000809348
:1006B000DF000E94EE0205C0C430D10511F080E0D9
:1006C00016C0C80168EE73E00E94CC03CB016093B2
:1006D000E1009093E2006AE070E00E94CC03C096D3
:1006E0009093EA008093E9000E94EE0281E0C3301B
:1006F000D10521F0813011F080E016C0C80164E618
:1007000070E00E94CC03CB016093E1009093E20083
:100710006AE070E00E94CC03C0969093E60080935C
:10072000E5000E94EE0281E0C230D10521F0813067
:1007300011F080E016C0C8016AE070E00E94CC03AE
:10074000CB016093E1009093E2006AE070E00E94C8
:10075000CC03C0969093E4008093E3000E94EE02E5
:1007600081E0C130D10511F0813061F4C8016AE047
:1007700070E00E94CC03C0969093E8008093E7005D
:100780000E94EE0226971CF085E40E94EE02DF91A3
:10079000CF911F910F910895AA1BBB1B51E107C078
:1007A000AA1FBB1FA617B70710F0A61BB70B881F01
:1007B000991F5A95A9F780959095BC01CD01089590
:0407C000F894FFCFDB
:1007C4002020202020202020202020202020200045
:1007D4004E4F20464952452121203A2D29202020E0
:1007E40000464952452100544F504F4C4F47590041
:1007F400202020202020202020200046495245216E
:10080400464952452100464952452146495245210F
:08081400464952452100FF0096
:00000001FF
