:100000000C9472000C9493000C9493000C94930045
:100010000C9493000C9468050C9443050C94930085
:100020000C9493000C9493000C9493000C94930004
:100030000C9493000C9493000C9493000C949300F4
:100040000C9493000C9493000C9493000C949300E4
:100050000C9493000C9493000C9493000C949300D4
:100060000C9493000C9427040C9493000C9493002C
:100070000C9493000C9493000C9493000C949300B4
:100080000C9493000C9493000C9493000C949300A4
:100090000C9493000C9493000C9493000C94930094
:1000A0000C9493000C9493000C9493000C94930084
:1000B0000C9493000C9493000C9493000C94930074
:1000C0000C9493000C9493000C9493000C94930064
:1000D0000C9493000C9493000C9493000C94930054
:1000E0000C94930011241FBECFEFD1E2DEBFCDBF31
:1000F00000E00CBF14E0A0E0B2E0EEEAFCE100E0BA
:100100000BBF02C007900D92A831B107D9F714E0D8
:10011000A8E1B4E001C01D92A634B107E1F70E9446
:10012000D8020C94550E0C9400003B9A4398089505
:1001300086B1886088B9089586B1877F88B90895A7
:10014000E1ECF0E010821092C00086E08093C200E3
:1001500087E48093C4001092C50088E980830895E5
:10016000E9ECF0E010821092C80086E08093CA00AB
:1001700087E48093CC001092CD0088E980830895B5
:100180002F923F924F925F926F927F928F929F92A7
:10019000AF92BF92CF92DF92EF92FF920F931F9395
:1001A000CF93DF93DC01E3E0F3E020E030E006C032
:1001B0002F5F3F4F34962230310589F08081918145
:1001C0008A179B0719F4B90140E050E082819381BE
:1001D0008A179B0769F7B90141E050E0E9CF8AE24D
:1001E000A82E84E0B82E08E010E081E090E0222400
:1001F0003324261A370ACC24DD24C41AD50A442411
:1002000055244C185D087C01E41AF50A662477240D
:100210006E187F0846C0A281B381A817B90789F478
:10022000BA0157FF04C066277727641B750B970137
:10023000F7FC9301260F371F2017310714F48901AB
:1002400001C0DE0134964F5F5F4F23E0EB30F207D1
:1002500001F131E083169104B1F4C081D181C81756
:10026000D90789F4BA0157FF04C066277727641BB2
:10027000750B9601D7FC9201260F371F2017310707
:1002800014F4890101C0ED0121E082169104C9F640
:10029000C2CF0196E2E0F0E0AE0EBF1E85309105C0
:1002A00039F0F50180809180E3E0F3E0A101D1CF46
:1002B000CD01DF91CF911F910F91FF90EF90DF90D3
:1002C000CF90BF90AF909F908F907F906F905F90F6
:1002D0004F903F902F9008958F929F92AF92BF9230
:1002E000CF92DF92EF92FF920F931F93CF93DF9302
:1002F000E3E0F3E020E030E010C0E90101E010E0CD
:100300006417750721F47901A1E0CA2ED12C2F5F63
:100310003F4F349622303105A1F04081518184173E
:10032000950719F4E90100E010E06417750719F466
:100330007901CC24DD24428153818417950701F78C
:10034000DCCFCE15DF0574F554E1852E51E0952EF6
:1003500041E0A42EB12C219680910D0390910E03C3
:10036000009751F40E94C30688EE93E0F4013197A0
:10037000F1F70197D9F703C08230910519F40E9473
:10038000C30604C0039711F40E94DD06B0920E0369
:10039000A0920D0384EF91E00E94AB06CE15DF051D
:1003A000D4F230C0EC16FD0634F12CC080910D0360
:1003B00090910E038130910551F40E94C30688EE9E
:1003C00093E0F5013197F1F70197D9F703C0833036
:1003D000910519F40E94C30604C0029711F40E940B
:1003E000DD06219710920E0310920D0384EF91E029
:1003F0000E94AB0604C034E1A32E31E0B32EEC160C
:10040000FD06A4F20C151D057CF524E1E22E21E089
:10041000F22EC3E0D0E00F5F1F4F80910D0390914B
:100420000E038230910551F40E94C30688EE93E0DA
:10043000F7013197F1F70197D9F703C081309105A2
:1004400019F40E94C30604C0892B11F40E94DD0632
:10045000D0930E03C0930D0380E392E00E94AB069D
:100460000C151D05C4F232C0C016D10634F12EC0E1
:1004700080910D0390910E038330910551F40E94F9
:10048000C30688EE93E0F7013197F1F70197D9F7AA
:1004900002C0009719F40E94C30604C0019711F42A
:1004A0000E94DD0601501040D0930E03C0930D034F
:1004B00080E392E00E94AB0606C094E1E92E91E051
:1004C000F92EC2E0D0E0C016D10694F280910D035F
:1004D00090910E038230910561F40E94C30688EE6C
:1004E00093E024E131E0F9013197F1F70197D9F771
:1004F00003C08130910519F40E94C30604C0892B02
:1005000011F40E94DD0683E090E090930E03809347
:100510000D0388E191E00E94AB0680E197E224E1BF
:1005200031E0F9013197F1F70197D9F788E191E0CE
:100530000E94B806DF91CF911F910F91FF90EF902D
:10054000DF90CF90BF90AF909F908F9008950E94C2
:100550001C053B9A43980E944A070E94B4040895E0
:10056000F8940E94A702E1ECF0E010821092C00023
:1005700026E02093C20097E49093C4001092C50037
:1005800088E98083E9ECF0E010821092C8002093A3
:10059000CA009093CC001092CD0080830E94D604B4
:1005A0000E94BB040E9431050E943A057894089588
:1005B0000F931F930E94B0020E9451070E94A4074C
:1005C00010922B0410922A0410922D0410922C04E5
:1005D00010922F0410922E041092310410923004C5
:1005E00080911C0490911D04181619069CF48091AA
:1005F0000B0390910C030E94C0008C0180910B03AF
:1006000090910C03B8010E946C0110930C030093AD
:100610000B03E6CFFFCF0F931F93DF93CF93CDB79D
:10062000DEB7CC52D1400FB6F894DEBF0FBECDBFBF
:100630008C01DE011196E0E0F2E085E001900D9280
:100640008150E1F7FE01369687E3DF011D928A951E
:10065000E9F7DE01DD96ECE3F2E087E001900D9230
:100660008150E1F785E3FE01EC5BFF4FDF011D9256
:100670008A95E9F7FE01E758FF4F9F0148E752E0EE
:100680008CE0DA010D90AD01D9010D929D018150F0
:10069000C1F73C9680E3DF011D928A95E9F7FE01E0
:1006A000EB54FF4F9F0144EB52E08AE0DA010D90DA
:1006B000AD01D9010D929D018150C1F73A9682E3B7
:1006C000DF011D928A95E9F7FE01EF50FF4F82E2AC
:1006D0009DE0AAE0B0E081939193A193B19388E368
:1006E000DF011D928A95E9F78091C90088608093A7
:1006F000C900FE013196DF010D900020E9F7119746
:1007000020E03CE606C081918093CE00C9010197AC
:10071000F1F7EA17FB07B9F7FE01FD96DF010D902F
:100720000020E9F7119720E03CE606C08191809314
:10073000CE00C9010197F1F7EA17FB07B9F7FE01EF
:10074000E758FF4FDF010D900020E9F7119720E0F7
:100750003CE606C081918093CE00C9010197F1F774
:10076000EA17FB07B9F7FE01EB54FF4FDF010D90CD
:100770000020E9F7119720E03CE606C081918093C4
:10078000CE00C9010197F1F7EA17FB07B9F7D801C5
:100790000D900020E9F71197A01BB10B20E030E08D
:1007A00040E05CE60BC0F801E20FF31F808180930C
:1007B000CE00CA010197F1F72F5F3F4F2A173B0781
:1007C00090F3FE01EF50FF4FDF010D900020E9F79D
:1007D000119720E03CE606C081918093CE00C901CC
:1007E0000197F1F7EA17FB07B9F7DB010D9000203D
:1007F000E9F71197A61BB70B20E030E040E05CE67C
:100800000BC0FB01E20FF31F80818093CE00CA0171
:100810000197F1F72F5F3F4F2A173B0790F38AE1CB
:100820008093CE0080E09CE60197F1F78091C900AB
:10083000877F8093C900C45DDE4F0FB6F894DEBF9A
:100840000FBECDBFCF91DF911F910F9108951F92E1
:100850000F920FB60F920BB60F9211242F933F9366
:100860004F935F936F937F938F939F93AF93BF93B8
:10087000EF93FF93E091C600E093340420911804B5
:10088000309119042115310549F4E093320481E0D7
:1008900090E0909319048093180453C021303105DF
:1008A00009F048C0E093330480913204813351F55C
:1008B00080911C0490911D04892B51F430931B04EA
:1008C00020931A0480EF92E06BEF72E00E940B031A
:1008D00080913304E82FF0E0EE0FFF1FE853FC4F48
:1008E00080819181892B31F580911C0490911D04A8
:1008F000019690931D0480931C0481E090E0918305
:10090000808318C08333B1F4F0E0EE0FFF1FE8538B
:10091000FC4F1182108280911C0490911D0401975C
:1009200090931D0480931C04892B21F410921B04C6
:1009300010921A0410921904109218048FEF8093E9
:100940003204FF91EF91BF91AF919F918F917F9171
:100950006F915F914F913F912F910F900BBE0F9030
:100960000FBE0F901F90189510BA11BA1092070180
:10097000109208010895E1E2F1E010829FEF909358
:10098000250181E080932401109229019093280190
:1009900010922B0190932A0110922D0190932C011B
:1009A00089EA809320018BE080830895EAE7F0E0F4
:1009B000108210927B0080E280937C0080E880BFF0
:1009C00086E880830895982F883018F088E0809317
:1009D0007B009770906290937C0080917A00806495
:1009E00080937A0080917A0084FFFCCF8091790017
:1009F00090917A00906190937A0010927B00089514
:100A00008093280160932A01089581B18F6081B994
:100A100082B1807F82B9EAE0F1E0808188618083E1
:100A2000EBE0F1E080818861808308956C98749A8E
:100A300008956D98759A089581B18F6081B982B1DA
:100A4000807F82B9EAE0F1E0808188618083EBE019
:100A5000F1E08081886180836C98749A6D98759AB2
:100A60000895F894EAE6F0E0808182608083EC9A51
:100A700078940895F894EAE6F0E0808188608083B5
:100A8000ED9A789408951F920F920FB60F92112449
:100A90008F939F93AF93BF938091260490912704E7
:100AA000A0912804B09129040196A11DB11D809345
:100AB000260490932704A0932804B0932904BF919F
:100AC000AF919F918F910F900FBE0F901F9018952F
:100AD0001F920F920FB60F9211248F939F93AF9393
:100AE000BF938091220490912304A0912404B0919B
:100AF00025040196A11DB11D809322049093230427
:100B0000A0932404B0932504BF91AF919F918F913E
:100B10000F900FBE0F901F90189592B1907F8F701D
:100B2000892B82B9089582B1807F866082B9089549
:100B300082B1807F896082B9089582B1807F8560AB
:100B400082B9089582B1807F8A6082B9089582B1A6
:100B5000807F846082B9089582B1807F826082B98B
:100B6000089582B1807F816082B9089582B1807FCB
:100B7000886082B9089582B1807F82B90895109209
:100B8000260410922704109228041092290410922F
:100B90002204109223041092240410922504A0E051
:100BA000B0E0BC01CD010E949C0B28E431EE42E88C
:100BB00050E40E946C0A0E949608672B21F482B1CF
:100BC000807F82B90895FFCFBF92CF92DF92EF92DC
:100BD000FF920F931F93A0E0B0E0BC01CD010E94F3
:100BE0009C0B2BE734E14EEA50E40E946C0A0E9411
:100BF00096087B018C011092260410922704109213
:100C000028041092290428ECB22E94E1C92E8AEF10
:100C1000D82E8091260490912704A0912804B091A9
:100C20002904E816F9060A071B0708F489C083E0BF
:100C30000E94E30480931F0482E00E94E3048093F7
:100C4000200481E00E94E304282F80932104109265
:100C50001E04409120044832A8F481E080931E04D1
:100C60008091380490913904019721F482B1807FFA
:100C7000866003C082B1807F896082B9B09228010A
:100C8000B0922A0130911F043932F0F080911E0495
:100C90008823D1F481E080931E04809138049091E0
:100CA0003904019749F482B1807F866082B9D0927D
:100CB0002801C0922A0108C082B1807F896082B970
:100CC000C0922801D0922A012932F0F080911E04AE
:100CD0008823D1F481E080931E04809138049091A0
:100CE0003904019749F482B1807F866082B9C0924D
:100CF0002801D0922A0108C082B1807F896082B920
:100D0000D0922801C0922A01493208F482CF3932A8
:100D100008F47FCF293208F47CCF80913804909179
:100D20003904019721F482B1807F866003C082B1CB
:100D3000807F896082B91092280110922A0169CFC0
:100D400082B1807F82B91F910F91FF90EF90DF9069
:100D5000CF90BF90089521E030E030933904209384
:100D6000380422B1207F266022B90E94E40508954C
:100D7000109239041092380422B1207F296022B9E0
:100D80000E94E405089582B1807F856082B988E879
:100D900093E124E131E0F9013197F1F70197D9F7B7
:100DA00082E00E94E3048093200480912004893231
:100DB000B8F782B1807F82B9089582B1807F8A605E
:100DC00082B988E893E124E131E0F9013197F1F744
:100DD0000197D9F782E00E94E3048093200483E026
:100DE0000E94E30480931F0405C082E00E94E30494
:100DF00080932004809120048932B8F782B1807FEB
:100E000082B9089522B1207F256022B90E94BF05D2
:100E1000089522B1207F2A6022B90E94BF0508955B
:100E200022B1207F246022B9880F991F0E94BF053C
:100E3000089522B1207F226022B9880F991F0E9455
:100E4000BF05089522B1207F216022B9880F991F24
:100E50000E94BF05089522B1207F286022B9880F23
:100E6000991F0E94BF0508950F931F93182F062FF7
:100E7000842F0E94E304482F80933704812F90E051
:100E8000602F70E050E023E030E00E9406081F91E0
:100E90000F91089587B1876F87B988B1807888B935
:100EA00008958CEC9AE0FC013197F1F74098419855
:100EB00040E348B9429A20E036E3F9013197F1F76F
:100EC0004298FC013197F1F74098419848B9429A0D
:100ED000F9013197F1F74298FC013197F1F7409809
:100EE000419848B9429AF9013197F1F74298019730
:100EF000F1F74098419880E288B9429AC901019778
:100F0000F1F74298089598B19F7098B928B1982F39
:100F1000907F922B98B940984198429A20E036E30E
:100F2000F9013197F1F7429898B19F7098B998B14B
:100F30008295807F982B98B940984198429AC90130
:100F40000197F1F7429808958CEC9AE00197F1F738
:100F500088E20E94830781E00E94830786E00E9466
:100F600083078EE00E94830780E80E94830708952C
:100F700098B19F7098B928B1982F907F922B98B90B
:100F8000409A4198429A20E036E3F9013197F1F70F
:100F9000429898B19F7098B998B18295807F982BAC
:100FA00098B9409A4198429AC9010197F1F742983D
:100FB000089580E80E9483070895CF93DF93EC01A2
:100FC00003C00E94B807219688818823D1F7DF915A
:100FD000CF910895823069F0833018F48130A9F4FC
:100FE00005C0833049F0843081F40BC0862F8158CE
:100FF00005C0862F815402C0862F8D560E9483071C
:101000000895862F8D520E94830708950F931F9392
:10101000CF93DF938A01E901882311F0662319F445
:101020000E94D90702C00E94EA07C530D10571F4B9
:10103000C80160E177E20E940A0ECB01C09690934E
:101040003B0480933A040E94B80705C0C430D10520
:1010500011F080E016C0C80168EE73E00E940A0E2D
:10106000CB0160933C0490933D046AE070E00E94E1
:101070000A0EC09690934504809344040E94B807DA
:1010800081E0C330D10521F0813011F080E016C03D
:10109000C80164E670E00E940A0ECB0160933C0434
:1010A00090933D046AE070E00E940A0EC09690930F
:1010B0004104809340040E94B80781E0C230D1050A
:1010C00021F0813011F080E016C0C8016AE070E0C4
:1010D0000E940A0ECB0160933C0490933D046AE0A9
:1010E00070E00E940A0EC09690933F0480933E04E5
:1010F0000E94B80781E0C130D10511F0813061F460
:10110000C8016AE070E00E940A0EC0969093430402
:10111000809342040E94B80726971CF085E40E9441
:10112000B807DF91CF911F910F910895EF92FF9231
:101130000F931F937B018C0120E030E040E05FE4DF
:101140000E94180B88238CF0C801B70120E030E022
:1011500040E05FE40E940E0A0E94480B9B01AC0134
:10116000205030404040504806C0C801B7010E949E
:10117000480B9B01AC01B901CA011F910F91FF906F
:10118000EF900895A0E0B0E0E8ECF8E00C941E0EBB
:10119000DC012B01FA019C91923008F439C1EB017A
:1011A0008881823008F433C1943069F4843009F0C6
:1011B0002FC111969C9111978981981709F428C124
:1011C000AFE0B3E025C1843009F421C18230A9F435
:1011D000923009F01DC19A01AD0188E0EA01099041
:1011E000AE01E90109929E018150C1F7E2018981B6
:1011F00011969C918923818308C1923009F407C11B
:1012000012962D903C901397EB018A819B81149646
:10121000AD90BD90CD90DC901797EC80FD800E8155
:101220001F819101281B390BB90137FF04C06627C4
:101230007727621B730B603271050CF061C01216C8
:1012400013066CF537014801062E04C09694879466
:10125000779467940A94D2F721E030E040E050E0C0
:1012600004C0220F331F441F551F6A95D2F7215027
:101270003040404050402E213F2140235123211532
:1012800031054105510521F021E030E040E050E01A
:1012900079018A01E628F728082919293CC0232B5F
:1012A000D1F1260E371E35014601062E04C0969454
:1012B0008794779467940A94D2F721E030E040E075
:1012C00050E004C0220F331F441F551F6A95D2F708
:1012D00021503040404050402A213B214C215D218B
:1012E000211531054105510521F021E030E040E0B4
:1012F00050E059016A01A628B728C828D9280BC090
:10130000821593052CF01C01AA24BB24650103C09F
:10131000EE24FF24870111969C91D20111968C91A5
:10132000981709F445C0992339F0A80197012A19A3
:101330003B094C095D0906C0A60195012E193F091C
:10134000400B510B57FD08C0118233822282248347
:101350003583468357831DC081E081833382228297
:1013600088279927DC01821B930BA40BB50B848380
:101370009583A683B7830DC0220F331F441F551FCB
:101380002483358346835783828193810197938396
:1013900082832481358146815781DA01C901019711
:1013A000A109B1098F5F9F4FAF4FBF4328F30BC017
:1013B000918333822282EA0CFB1C0C1D1D1DE482EA
:1013C000F5820683178383E08083248135814681FB
:1013D000578157FF1AC0C901AA2797FDA095BA2FB8
:1013E00081709070A070B07056954795379527958D
:1013F000822B932BA42BB52B84839583A683B78351
:1014000082819381019693838283DF0101C0D2019F
:10141000CD01CDB7DEB7E2E10C943A0EA0E2B0E028
:10142000E4E1FAE00C942A0E69837A838B839C832F
:101430002D833E834F835887E9E0EE2EF12CEC0E8E
:10144000FD1ECE010196B7010E94390D8E010F5E7F
:101450001F4FCE010596B8010E94390D8A8991E08F
:1014600089278A8BC701B801AE01475E5F4F0E9492
:10147000C2080E94640CA096E6E00C94460EA0E21E
:10148000B0E0E5E4FAE00C942A0E69837A838B835A
:101490009C832D833E834F835887F9E0EF2EF12CF8
:1014A000EC0EFD1ECE010196B7010E94390D8E0192
:1014B0000F5E1F4FCE010596B8010E94390DC7017E
:1014C000B801AE01475E5F4F0E94C2080E94640CE3
:1014D000A096E6E00C94460EA8E1B0E0E2E7FAE060
:1014E0000C94260E69837A838B839C832D833E83A1
:1014F0004F835887B9E0EB2EF12CEC0EFD1ECE0188
:101500000196B7010E94390D8E010F5E1F4FCE016B
:101510000596B8010E94390D2985223008F47EC055
:101520003989323010F4B8017CC08A859A898927BC
:101530008A87243011F0223031F4231709F06EC06D
:101540006FE073E06EC0343039F41D861E861F864E
:10155000188A1C861B8604C0323021F484E08987F7
:10156000B7015FC02B853C858B899C89281B390B73
:101570003C872B87ED84FE840F851889AD88BE8853
:10158000CF88D88CEA14FB040C051D0540F4EE0C42
:10159000FF1C001F111F215030403C872B8720E08B
:1015A00030E040E050E080E090E0A0E0B0E460E0B7
:1015B00070E0EA14FB040C051D0540F0282B392BC4
:1015C0004A2B5B2BEA18FB080C091D09B695A79559
:1015D00097958795EE0CFF1C001F111F6F5F7F4FC3
:1015E0006F31710531F7DA01C9018F779070A07002
:1015F000B07080349105A105B10561F427FD0AC0E2
:10160000E114F1040105110529F0205C3F4F4F4F13
:101610005F4F20782D873E874F87588BBE01675FCD
:101620007F4FCB010E94640C6896EAE00C94420E56
:10163000A8E1B0E0EEE1FBE00C942A0E69837A8326
:101640008B839C832D833E834F83588789E0E82ECC
:10165000F12CEC0EFD1ECE010196B7010E94390D52
:101660008E010F5E1F4FCE010596B8010E94390D05
:101670008985823040F08989823028F0C701B8011D
:101680000E94B10D01C08FEF6896E6E00C94460E03
:10169000ACE0B0E0EEE4FBE00C942E0E69837A83BC
:1016A0008B839C83CE010196BE016B5F7F4F0E94AE
:1016B000390D8D81823061F1823050F1843021F416
:1016C0008E81882351F12EC02F81388537FD20C0AF
:1016D0006E812F3131051CF06623F9F023C08EE1B5
:1016E00090E0821B930B29853A854B855C8504C06D
:1016F00056954795379527958A95D2F76623B1F089
:1017000050954095309521953F4F4F4F5F4F0EC0FC
:1017100020E030E040E050E009C02FEF3FEF4FEF16
:101720005FE704C020E030E040E050E8B901CA01C2
:101730002C96E2E00C944A0EA8E0B0E0E2EAFBE06E
:101740000C94260E7B018C016115710581059105B4
:1017500019F482E0898360C083E089838EE1C82E1A
:10176000D12CDC82CB82ED82FE820F831887C801E8
:10177000B7010E94150CFC013197F7FF3BC02227EF
:1017800033272E1B3F0B57016801022E04C0D6944D
:10179000C794B794A7940A94D2F740E050E060E071
:1017A00070E081E090E0A0E0B0E004C0880F991FF5
:1017B000AA1FBB1F2A95D2F70197A109B1098E2153
:1017C0009F21A023B1230097A105B10521F041E09D
:1017D00050E060E070E04A295B296C297D294D8347
:1017E0005E836F8378878EE190E08E1B9F0B9C83D6
:1017F0008B8312C0309781F00E2E04C0EE0CFF1CBC
:10180000001F111F0A94D2F7ED82FE820F83188702
:10181000CE1ADF0ADC82CB821A82CE0101960E94A8
:10182000640C2896EAE00C94420EEF92FF920F931C
:101830001F937B018C0180E0E81680E0F80681E0D0
:10184000080780E0180788F48FEFE816F104010517
:10185000110531F028F088E090E0A0E0B0E017C07A
:1018600080E090E0A0E0B0E012C080E0E81680E008
:10187000F80680E0080781E0180728F088E190E08A
:10188000A0E0B0E004C080E190E0A0E0B0E020E2A1
:1018900030E040E050E0281B390B4A0B5B0B04C0E2
:1018A00016950795F794E7948A95D2F7F701E95EC4
:1018B000FC4F8081281B310941095109C9011F9141
:1018C0000F91FF90EF900895DF92EF92FF920F93A8
:1018D0001F93FC01E480F58006811781D18080810F
:1018E000823048F480E090E0A0E1B0E0E82AF92AF4
:1018F0000A2B1B2BA5C0843009F49FC0823021F431
:10190000EE24FF24870105C0E114F104010511054F
:1019100019F4E0E0F0E096C0628173819FEF6238D5
:1019200079070CF05BC022E83FEF261B370B2A310A
:1019300031052CF020E030E040E050E02AC0B80152
:10194000A701022E04C076956795579547950A948E
:10195000D2F781E090E0A0E0B0E004C0880F991FCA
:10196000AA1FBB1F2A95D2F70197A109B1098E21A1
:101970009F21A023B1230097A105B10521F081E0AB
:1019800090E0A0E0B0E09A01AB01282B392B4A2B64
:101990005B2BDA01C9018F779070A070B070803432
:1019A0009105A105B10539F427FF09C0205C3F4F1F
:1019B0004F4F5F4F04C0215C3F4F4F4F5F4FE0E000
:1019C000F0E02030A0E03A07A0E04A07A0E45A0780
:1019D00010F0E1E0F0E079018A0127C0603871057C
:1019E00064F5FB01E158FF4FD801C7018F77907074
:1019F000A070B07080349105A105B10539F4E7FEFF
:101A00000DC080E490E0A0E0B0E004C08FE390E07F
:101A1000A0E0B0E0E80EF91E0A1F1B1F17FF05C06B
:101A200016950795F794E794319687E016950795F4
:101A3000F794E7948A95D1F705C0EE24FF24870137
:101A4000EFEFF0E06E2F679566276795902F9F77F1
:101A5000D794DD24D7948E2F8695492F462B582F67
:101A60005D29B701CA011F910F91FF90EF90DF90A0
:101A70000895FC01DB01408151812281622F6F7743
:101A800070E0221F2227221F9381892F880F822B2B
:101A9000282F30E0991F9927991F11969C93119731
:101AA00021153105A9F5411551056105710511F49F
:101AB00082E037C082E89FEF13969C938E93129733
:101AC0009A01AB0167E0220F331F441F551F6A952F
:101AD000D1F783E08C930DC0220F331F441F551F95
:101AE00012968D919C911397019713969C938E93C8
:101AF0001297203080E0380780E0480780E45807DC
:101B000058F314962D933D934D935C931797089536
:101B10002F3F310579F4411551056105710519F41F
:101B200084E08C93089564FF03C081E08C9312C01D
:101B30001C9210C02F57304013963C932E9312974F
:101B400083E08C9387E0440F551F661F771F8A95AB
:101B5000D1F7706414964D935D936D937C931797B2
:101B600008951F93DC01FB019C91923008F447C05B
:101B70008081823008F443C0943051F411961C9156
:101B8000843099F58181682F70E0611B71093FC035
:101B9000843021F0923031F48230B9F18181882390
:101BA00089F12DC011961C9111978230F1F081813D
:101BB0001817D9F412962D913C9113978281938135
:101BC0008217930794F028173907BCF014968D916B
:101BD0009D910D90BC91A02D248135814681578126
:101BE000281739074A075B0718F4112341F00AC088
:101BF00082179307A407B50740F4112319F061E099
:101C000070E005C06FEF7FEF02C060E070E0CB01D5
:101C10001F910895AA1BBB1B51E107C0AA1FBB1F40
:101C2000A617B70710F0A61BB70B881F991F5A9568
:101C3000A9F780959095BC01CD0108952F923F9210
:101C40004F925F926F927F928F929F92AF92BF92CC
:101C5000CF92DF92EF92FF920F931F93CF93DF9378
:101C6000CDB7DEB7CA1BDB0B0FB6F894DEBF0FBED5
:101C7000CDBF19942A88398848885F846E847D8412
:101C80008C849B84AA84B984C884DF80EE80FD8024
:101C90000C811B81AA81B981CE0FD11D0FB6F8949A
:0E1CA000DEBF0FBECDBFED010895F894FFCF5B
:101CAE0041540D0A0000000000000000000000007A
:101CBE000000000000000000000000000000000016
:101CCE000000000000000000000000000000000006
:101CDE0000000000000000000000000041544530EC
:101CEE000D0A0000000000000000000000000000CF
:101CFE0000000000000000000000000000000000D6
:101D0E0000000000000000000000000000000000C5
:101D1E00000000000000000041542B434D47463D9B
:101D2E00310D0A000000000000000000000000005D
:101D3E000000000000000000000000000000000095
:101D4E000000000000000000000000000000000085
:101D5E000000000041542B434D47533D220000002C
:101D6E000000000000000000000000000000000065
:101D7E000000000000000000000000000000000055
:101D8E000000000000000000000000000000000045
:101D9E00393332303639393730370046697265217A
:101DAE0021210001000200030004000100030000D5
:101DBE000000000000000000010202030303030400
:101DCE0004040404040404050505050505050505BC
:101DDE00050505050505050606060606060606069C
:101DEE000606060606060606060606060606060685
:101DFE00060606060606060707070707070707076C
:101E0E000707070707070707070707070707070754
:101E1E000707070707070707070707070707070744
:101E2E000707070707070707070707070707070734
:101E3E00070707070707070808080808080808081B
:101E4E000808080808080808080808080808080804
:101E5E0008080808080808080808080808080808F4
:101E6E0008080808080808080808080808080808E4
:101E7E0008080808080808080808080808080808D4
:101E8E0008080808080808080808080808080808C4
:101E9E0008080808080808080808080808080808B4
:101EAE0008080808080808080808080808080808A4
:081EBE000808080808080800E4
:00000001FF
